{
  "contractName": "election",
  "abi": [
    {
      "inputs": [],
      "payable": false,
      "stateMutability": "nonpayable",
      "type": "constructor"
    },
    {
      "constant": true,
      "inputs": [
        {
          "internalType": "address",
          "name": "",
          "type": "address"
        }
      ],
      "name": "voters",
      "outputs": [
        {
          "internalType": "bool",
          "name": "",
          "type": "bool"
        }
      ],
      "payable": false,
      "stateMutability": "view",
      "type": "function"
    },
    {
      "constant": false,
      "inputs": [
        {
          "internalType": "uint256",
          "name": "id",
          "type": "uint256"
        }
      ],
      "name": "castVote",
      "outputs": [],
      "payable": false,
      "stateMutability": "nonpayable",
      "type": "function"
    },
    {
      "constant": true,
      "inputs": [],
      "name": "viewVote",
      "outputs": [
        {
          "internalType": "uint256[3]",
          "name": "",
          "type": "uint256[3]"
        }
      ],
      "payable": false,
      "stateMutability": "view",
      "type": "function"
    }
  ],
  "bytecode": "0x608060405234801561001057600080fd5b5060008060006003811061002057fe5b018190555060008060016003811061003457fe5b018190555060008060026003811061004857fe5b018190555061030b8061005c6000396000f3fe608060405234801561001057600080fd5b50600436106100415760003560e01c80633eb76b9c14610046578063a3ec138d14610074578063cf26b5a4146100d0575b600080fd5b6100726004803603602081101561005c57600080fd5b8101908080359060200190929190505050610116565b005b6100b66004803603602081101561008a57600080fd5b81019080803573ffffffffffffffffffffffffffffffffffffffff169060200190929190505050610249565b604051808215151515815260200191505060405180910390f35b6100d8610269565b6040518082600360200280838360005b838110156101035780820151818401526020810190506100e8565b5050505090500191505060405180910390f35b600360003373ffffffffffffffffffffffffffffffffffffffff1673ffffffffffffffffffffffffffffffffffffffff16815260200190815260200160002060009054906101000a900460ff161561016d57600080fd5b6001600360003373ffffffffffffffffffffffffffffffffffffffff1673ffffffffffffffffffffffffffffffffffffffff16815260200190815260200160002060006101000a81548160ff02191690831515021790555060008114156101f0576001600080600381106101dd57fe5b0160008282540192505081905550610246565b600181141561021c576001600060016003811061020957fe5b0160008282540192505081905550610245565b6002811415610244576001600060026003811061023557fe5b01600082825401925050819055505b5b5b50565b60036020528060005260406000206000915054906101000a900460ff1681565b6102716102b4565b60006003806020026040519081016040528092919082600380156102aa576020028201915b815481526020019060010190808311610296575b5050505050905090565b604051806060016040528060039060208202803883398082019150509050509056fea265627a7a723158201ca39df3554d64a44878aeeeaccd49604b1d051e6900348a99d821c3d11b064064736f6c63430005100032",
  "source": "pragma solidity 0.5.16; // compiler version (replace your compiler version)\n\ncontract election { // creating a contract\n\tuint[3] private votes; // state variable, holding the number of votes casted\n\tmapping(address => bool) public voters;\n\t// if the voter casted their vote, assign the address to True\n\t// Truth Table\n\t// address (col1), status (col2)\n\t// storing the wallet addres (voter), True \n\n\tconstructor() public { // when a smart contract is deployed, immediately\n\t\tvotes[0]=0; // first contestant - id as 0\n\t\tvotes[1]=0; // second contestant - id as 1\n\t\tvotes[2]=0; // third contestant - id as 2\n\t}\n\t\n\tfunction castVote(uint id) public { // to cast a vote for their fav contestant\n\n\t\trequire(!voters[msg.sender]); // throws exception\n\t\t// msg.sender is a global variable, wallet address\n\n\t\tvoters[msg.sender]=true;\t\t\n\t\t\n\t\tif(id==0) {\n\t\t\tvotes[0]+=1;\t// first contestant\n\t\t} else if(id==1) {\n\t\t\tvotes[1]+=1; // second\n\t\t} else if(id==2) {\n\t\t\tvotes[2]+=1; // third\n\t\t}\n\t}\n\t\n\tfunction viewVote() public view returns(uint[3] memory) { // result\n\t\treturn(votes); // votes is array, 0, 1, 2 \n\t}\n}\n",
  "sourcePath": "/home/mad/coep-blockchain-project/voting-dapp/contracts/election.sol",
  "compiler": {
    "name": "solc",
    "version": "0.5.16+commit.9c3226ce.Emscripten.clang"
  },
  "schemaVersion": "3.3.2",
  "updatedAt": "2021-01-06T07:22:20.025Z",
  "networkType": "ethereum",
  "devdoc": {
    "methods": {}
  },
  "userdoc": {
    "methods": {}
  }
}